:020000040800F2
:10000000D80700209D010008A10C00086D08000819
:10001000E10B0008350200082F1100080000000065
:10002000000000000000000000000000A10D00081A
:10003000CD020008000000001D0D0008D10E0008D0
:10004000B7010008B7010008B7010008B7010008B0
:10005000B7010008B7010008B7010008B7010008A0
:10006000B7010008B7010008B7010008B701000890
:10007000B7010008B7010008B7010008B701000880
:10008000B7010008B7010008B7010008B701000870
:10009000B7010008B7010008B7010008E103000834
:1000A000B7010008B7010008B7010008B701000850
:1000B00005100008B7010008B7010008B7010008E3
:1000C000B7010008B7010008B7010008B701000830
:1000D000B7010008B7010008B70100082D1100089A
:1000E000B1030008B7010008B7010008B701000814
:1000F000B7010008B7010008B7010008B701000800
:10010000B7010008B7010008B7010008B7010008EF
:10011000B7010008B7010008B7010008B7010008DF
:10012000B7010008B7010008B7010008B7010008CF
:10013000B7010008B7010008B7010008B7010008BF
:10014000B7010008B7010008B7010008B7010008AF
:10015000B7010008B7010008B7010008B70100089F
:10016000B7010008B7010008B7010008B70100088F
:10017000B7010008B7010008B7010008B70100087F
:10018000B7010008B7010008DFF80CD000F040F814
:1001900000480047E5150008D807002006488047BA
:1001A00006480047FEE7FEE7FEE7FEE7FEE7FEE75C
:1001B000FEE7FEE7FEE7FEE7410F000889010008C1
:1001C0000649074A0868504343F239021044086060
:1001D000400870470149086070470000B0000020E7
:1001E0006D4EC64130B50B46014600202022012449
:1001F00009E021FA02F59D4205D303FA02F5491BF5
:1002000004FA02F52844151EA2F10102F1DC30BD0A
:10021000064C074D06E0E06840F0010394E8070053
:1002200098471034AC42F6D3FFF7B2FF987E02082D
:10023000B87E020800BFFEE708B520480068002825
:100240000BDB1E480068F02807DA1C4840680028CD
:1002500003DB1A484068F02801DB012008BD0120BB
:100260001749086021E0154800681449144A1268CB
:1002700051F83210884213D110484168104A126870
:1002800000EBC200406881420AD108E000204FF430
:1002900078430C4A87210090782000F017FCF5E79E
:1002A00007480068401C0649086005480068064980
:1002B00009688842D7DB0020D0E70000B4000020A6
:1002C00014000020280000201800002070470000C3
:1002D00001B504490098086000BF02480068002882
:1002E000FBD108BDA400002038B54FF47840084C7D
:1002F0000090A4880A34A3B2054C24780A34E2B2F0
:10030000034CA488A1B2024C207800F0F3FA38BD67
:10031000200000207FB5214A07CA01AB07C320484F
:1003200020A10268981F00F04BFF00204FF6FF73DA
:1003300001AA0A210090084600F0C8FB00201A49D3
:10034000086024E04FF4FC60184C174D00902D68B5
:1003500004EBC504A4880A34A3B2144C124D2D68D2
:1003600014F835400A34E2B2104C0F4D2D6804EBFE
:10037000C504A488A1B20D4C0B4D2D6814F83500AE
:1003800000F0B8FA08480068401C074908600648B1
:100390000068034909688842D4DB7FBD2C18000837
:1003A000180000202564000014000020B400002084
:1003B00010B54FF4005000F031F870B107490968EA
:1003C000C81CC11700EB91718910A0EB8101034A91
:1003D00011604FF4005000F01BF810BD1C0000200D
:1003E00010B54FF4007000F019F870B107490968B2
:1003F000481CC11700EB91718910A0EB8101034AE1
:1004000011604FF4007000F003F810BD1C000020D4
:100410000149086070470000143C0140014600207B
:100420000022074B1B6803EA0102054B14331B68CB
:100430000B4013B10AB1012000E00020704700001A
:10044000003C0140002123498279002A3AD00A4623
:10045000126803689A430B461A600A1D1268036803
:100460009A430B1D1A60027911440A6803681A4303
:100470000A60184A0832126803689A43154B083319
:100480001A601A1D126803689A43124B0C331A60E3
:100490004279102A0ED11A1F126803681A430D4BB5
:1004A00008331A601A1D126803681A43094B0C338B
:1004B0001A600DE00749427911440A6803681A433B
:1004C0000A6005E0027911440A6803689A430A60E9
:1004D00070470000003C014051B18200A2F1C042CF
:1004E000126842F001038200A2F1C042136009E0E9
:1004F0008200A2F1C0421268034B1A408300A3F1AC
:10050000C0431A6070470000FEFF0F00D0E90112DF
:100510001143C26811430269114342691143826960
:100520001143C2691143026A1143426A1143826A4C
:100530001143C26A1143026B114302689200A2F197
:10054000C0421160816808290BD101688900A1F1BE
:10055000C041096841F0400201688900A1F1C04131
:100560000A60416B0968426B526841EA0211426BB2
:10057000926841EA0221426B928941EA0241426B50
:10058000128A41EA0251426B127D41EA0261426BDA
:10059000926911430268521C9200A2F1C04211609C
:1005A000C16AB1F5804F1BD1816B0968826B5268BB
:1005B00041EA0211826B926841EA0221826B128A3F
:1005C00041EA0251826B127D41EA0261826B9269BB
:1005D000114302689200A2F1C042C2F8041107E080
:1005E0006FF0704201688900A1F1C041C1F8042197
:1005F0007047002101600221416000218160C160DB
:10060000016141618161C16101624FF480514162C8
:10061000490081620021C16201630F21426B1160B8
:10062000426B5160FF21426B91600F21426BD160A0
:10063000426B1161426B51610021426B91610F214C
:10064000826B1160826B5160FF21826B91600F2180
:10065000826BD160826B1161826B51610021826B70
:1006600091617047F0B50A4600210023002400BFC5
:100670003DE0012505FA01F3156805EA03049C42F3
:1006800034D105684F000326BE40B5430560157997
:100690004E00B5400668354305601579012D02D03E
:1006A0001579022D16D185684F000326BE40B5434B
:1006B000856055794E00B54086683543856045684C
:1006C00001268E40B5434560456896798E40B6B2A6
:1006D00035434560C5684F000326BE40B543C5603D
:1006E000D5794E00B540C6683543C560491C102910
:1006F000BFD3F0BD00B585B00121080200F010FBAA
:100700000121880300F03CFB00208DF8100003203D
:100710008DF8110001208DF813004002039003A909
:100720002C48FFF79FFF0921082000F03BFB4FF406
:100730000070019000208DF808000C208DF8090051
:1007400001208DF80A0001A8FFF77CFE17208DF824
:10075000000000208DF801008DF8020001208DF8C6
:100760000300684600F09EFA0121042000F0D8FA48
:1007700000208DF8100003208DF8110001208DF865
:1007800013004003039003A91348FFF76BFF0D21EB
:10079000022000F007FB4FF40050019000208DF87C
:1007A00008000C208DF8090001208DF80A0001A82E
:1007B000FFF748FE28208DF8000000208DF801008A
:1007C00001208DF802008DF80300684600F06AFAF7
:1007D00005B000BD0020024000080240F0B5002333
:1007E00000244D07ED0E02FA05F3CE1000F12005AE
:1007F00055F826504E07F70E0F26BE40B543CF10D2
:1008000000F1200646F82750CE1000F1200555F8DB
:10081000265045EA0304CE1000F1200545F8264095
:10082000F0BD41837047018370470AB1018300E046
:100830004183704710B5FFF7C3FC182190FBF1F21C
:1008400001FB120000EB8000400007490860FFF741
:10085000B7FC182190FBF1F201FB120000EB8000C5
:1008600040000149486010BD2000002000BFFEE7A5
:1008700010B50320144908600120144908600020C5
:100880001349086016E01248006800EB800032212E
:10089000A1EB40000F490E4A126841F832003220A5
:1008A0000B4A126801EBC201486009480068401C0D
:1008B0000749086006480068044909688842E2DB85
:1008C000FFF7B8FF10BD00001C000020180000203A
:1008D00014000020B400002070B505460E461446F2
:1008E0003146284600F027F800F09AFF204600F035
:1008F00093FF70BD2DE9F04304460D4616461F4692
:10090000DDF81C803B4632462946204600F005F9BA
:1009100000F086FF781B401C311B491C00FB01F9CD
:1009200002E0404600F078FFB9F10000A9F10109AA
:10093000F7D1BDE8F08300B502460B462A2000F04F
:1009400067FF101200F068FFD0B200F065FF0120D1
:1009500000F062FFDF2000F05FFF2B2000F058FF67
:10096000181200F059FFD8B200F056FF012000F035
:1009700053FF0F2000F050FF00BD00002DE9F04FA5
:1009800006460F4690461D46DDF824B0B6F5847F36
:1009900002DCB7F5E87F01DDBDE8F08FA8F12000AB
:1009A00000F0FF08002432E00C2D07D108EB4800CE
:1009B000194901EB800010F804A004E0174800EB8F
:1009C000081010F804A04FF0000919E00AF0010027
:1009D00040B13A1991B206EB090290B25A46FFF7BC
:1009E0007BFF07E03A1991B206EB090290B20A9A2E
:1009F000FFF772FF4FEA6A0A09F1010000F0FF09F0
:100A000005EBD571B9EB610FE0DB601CC4B2AC4201
:100A1000CADB00BFC0E7000036180008AA1C0008A7
:100A20002DE9FC4305460C4616461F46DDF824908A
:100A30004FF01008B5F5F07F03DD002504EB08004A
:100A400084B2E32C06DD0020054604464FF6FF7015
:100A500000F0BEFCCDE900793278434621462846B5
:100A6000FFF78CFFBDE8FC832DE9F84F05460C46E7
:100A700016469846DDF828904FF0100A4FF0000B0C
:100A8000DFF844B0B5F5F07F03DD002504EB0A0084
:100A900084B2E32C06DD0020054604464FF6FF70C5
:100AA00000F096FC304600F06FFC074607EB07109D
:100AB0000BEB4000821C434621462846CDF80090AF
:100AC00000F037FBBDE8F88F9A2200082DE9F841C5
:100AD00005460F4614469846079E19E02078802860
:100AE0000BDD43462246394628460096FFF7BCFFF9
:100AF000A41C05F1100085B20AE04346224639469F
:100B000028460096FFF78CFF641C05F1080085B2AB
:100B100020780028E2D1BDE8F88130B504460D46C2
:100B20002A2000F075FEC4F30F2000F075FEE0B23D
:100B300000F072FEC2F30F2000F06EFED0B200F0A3
:100B40006BFE2B2000F064FEC5F30F2000F064FE66
:100B5000E8B200F061FEC3F30F2000F05DFED8B2F2
:100B600000F05AFE30BD00001CB501208DF80400D5
:100B700000208DF8060003208DF8050000208DF878
:100B80000700002427E004EB4401144A52F8210036
:100B9000012100F0C5F804EB4400104901EB80008E
:100BA0000089009004EB44010C4A02EB8101486883
:100BB0006946FFF757FD04EB4402084B03EB820242
:100BC000118904EB440203EB820250680122FFF713
:100BD0002CFE601CC4B2042CD5DB1CBD38000020E8
:100BE00000BFFEE710B529480068401E284908608C
:100BF00011E028482649096800EBC1012448006833
:100C0000401E244A02EBC00205CA05C12048006804
:100C1000401E1F4908601E4800680028E9DC1E4885
:100C2000006830B1012810D0022808D0032818D15C
:100C300011E0184840680A381649486011E0154824
:100C400040680A30134948600BE0124800680A38CF
:100C50001049086005E00F4800680A300D49086037
:100C600000BF00BF0B4800680C49096888420CD1DE
:100C70000848406809494968884206D10348006825
:100C8000401C02490860FFF7D5FD10BD1800002088
:100C900014000020B40000201C00002020000020D0
:100CA0007047000070B5002100230F22C4781CB3E8
:100CB000174C246804F4E064C4F5E064C4F307212D
:100CC000C1F10404E3B20A4144789C40E1B2847863
:100CD000144021430C07210E0E4C05786155047811
:100CE00004F01F050124AC4005786D11AD0005F13D
:100CF000E025C5F8004109E0047804F01F0501244F
:100D0000AC40054D0678761145F8264070BD0000D0
:100D10000CED00E000E400E080E100E0704700003E
:100D200029B1064A12680243044B1A6004E0034AE0
:100D300012688243014B1A6070470000303802404D
:100D400029B1064A12680243044B1A6004E0034AC0
:100D500012688243014B1A60704700003838024025
:100D600029B1064A12680243044B1A6004E0034AA0
:100D700012688243014B1A607047000040380240FD
:100D800029B1064A12680243044B1A6004E0034A80
:100D900012688243014B1A607047000044380240D9
:100DA0007047000030B500228B071C0F0F2303FA99
:100DB00004F20B4B8C1053F824309343084C8D10E5
:100DC00044F8253023468C1053F824308C07240F28
:100DD00000FA04F42343024C8D1044F8253030BD52
:100DE000083801400CB5002001900090344800689C
:100DF00040F480303249086000BF3148006800F498
:100E0000003000900198401C0190009818B901989A
:100E1000B0F5A06FF1D12A48006800F4003010B19D
:100E20000120009001E0002000900098012846D1A8
:100E300023484030006840F080502149403108602C
:100E40002048006840F480401E4908601C48083073
:100E500000681B49083108600846006840F40040FB
:100E600008600846006840F4A05008601648091F52
:100E70000860081F006840F08070091F086000BF0C
:100E80000F48006800F000700028F9D040F20560BB
:100E90000E4908600A480830006820F0030008493D
:100EA000083108600846006840F00200086000BF92
:100EB00003480830006800F00C000828F8D10CBD89
:100EC000003802400070004019544007003C0240C6
:100ED00010B500F01FF910BD30B5164800684FF48A
:100EE0007A72B0FBF2F1481EB0F1807F01D301208D
:100EF0001BE0481E4FF0E022506150170F220028DF
:100F000004DB13071C0E0C4B1C5406E013071D0ECC
:100F10000A4B00F00F04241F1D5500BF00204FF0A6
:100F2000E022906107201061002008B100BFFEE7B9
:100F300030BD00000000002000E400E018ED00E0FB
:100F400010B51548006840F4700013490860134854
:100F5000006840F001001149086000200F49083185
:100F600008600E4800680E4908400C4908600D48AA
:100F7000091D0860081F006820F48020091F086010
:100F8000002006490C310860FFF72CFF4FF000608D
:100F900001498039086010BD88ED00E0003802404A
:100FA000FFFFF6FE103000241FB501210846FFF7B1
:100FB000D7FE42F20F70029042F2CF00ADF804006B
:100FC0000020ADF80C00ADF8060001A94FF08040FC
:100FD00000F05EF801221146900700F050F81C2046
:100FE0008DF8000000208DF801008DF8020001202E
:100FF0008DF803006846FFF755FE0121880700F0D1
:1010000021F81FBD10B50121880700F027F8A8B10D
:10101000002000F0DDF9FFF7E5FDFFF70DF928B13D
:1010200000214FF0804000F00DF803E0FFF772F967
:10103000FFF75AF90121880700F001F810BDCA43F3
:101040000282704721B1028842F00102028004E06E
:1010500002884FF6FE731A400280704730B5024690
:10106000002000230024158A05EA0103958905EA7A
:10107000010413B10CB1012000E0002030BD1AB111
:1010800083890B43838102E083898B43838170478B
:1010900000220288184B98420ED0184B98420BD071
:1010A000B0F1804F08D0164B984205D0154B9842AE
:1010B00002D0154B984204D14FF68F731A404B88DB
:1010C0001A43124B984207D0114B984204D04FF666
:1010D000FF431A400B891A4302804B68C3620B8896
:1010E0000385054B984202D0044B984201D18B7A7C
:1010F0000386012383827047000001400004014001
:101100000004004000080040000C004000100040B7
:10111000001400400448006820B103480068401EE5
:101120000149086070470000A4000020704700BF1C
:10113000FEE72DE9F04F88B007460E4690469946E7
:10114000C246002410E0BAF800002DF814003DF863
:101150001400000A1DF8141040EA01202DF81400B4
:101160000AF1020A601C84B2102CECDBB3460024A6
:1011700020E0002516E03DF81400A84000F40040EF
:1011800038B1321991B27A1990B24A46FFF7A4FBEE
:1011900006E0321991B27A1990B2119AFFF79CFBCE
:1011A000681C85B2102DE6DB0BF101001FFA80FBF5
:1011B000601C84B2102CDCDB08B0BDE8F08F0000AE
:1011C0000FB4084B10B504A902AA039800F01CF84C
:1011D000044602A9002000F0C1F8204610BC5DF8CA
:1011E00014FB00005D13000802E008C8121F08C1CC
:1011F000002AFAD170477047002001E001C1121F98
:10120000002AFBD1704700002DE9FF4F89B09B46B3
:101210000446002506E025280BD05A460B99904736
:10122000641C6D1C20780028F5D10DB02846BDE85F
:10123000F08F0027B8460122474900E0074314F821
:10124000013F203B02FA03F00842F7D120782E2814
:1012500019D114F8010F47F004072A280ED06FF0B7
:101260002F022078A0F1300109290CD808EB880161
:1012700002EB410100EB0108641CF2E70A98641CD0
:1012800050F8048B0A9020780028CED0642808D02B
:10129000692806D075281ED05A460B9990476D1CB8
:1012A00058E00A994FF00A0901C90A91002802DAA8
:1012B00040422D2102E0390504D52B218DF8201064
:1012C000012103E0F90704D02021F7E78A4608AEA0
:1012D0000DE00021FAE70A994FF00A0901C90A91C5
:1012E000F7E74946FEF77EFF303106F8011D00287A
:1012F000F7D1ADEB060000F12009780701D44FF0DB
:101300000108C84502DDA8EB090000E00020804686
:10131000002706E008A85A46C05D0B9990476D1C4F
:101320007F1C5745F6DB04E030205A460B99904766
:101330006D1CB8F10001A8F10108F5DC05E016F814
:10134000010B5A460B9990476D1CB9F10001A9F1A8
:101350000109F4DC641C65E7092801000A68531CD4
:101360000B601070704708B509E00021009102E0A1
:101370000099491C00910099B1F5FA7FF8D3011E3C
:10138000A0F10100F1D108BD10B5024600210F4BBC
:1013900013E0107801EB011413F81440A04209D1B6
:1013A000507801EB011403EB44046478A04201D1AE
:1013B000084610BD481C81B200BF01EB011013F8B4
:1013C00010008028E5DC00BF0020F2E79A22000828
:1013D00000B503462A2000F01BFA002000F01CFA9A
:1013E000002000F019FA012000F016FADF2000F0CA
:1013F00013FA2B2000F00CFA002000F00DFA002068
:1014000000F00AFA012000F007FA0F2000F004FAB9
:101410002C2000F0FDF92C2000F0FAF9002203E066
:10142000184600F0F9F9521CB2F5FF3FF8D300BDA1
:1014300010B500F0E5F84FF400716848FFF7F3F9D4
:101440006420FFF790FF002000F0D7F9644908807E
:101450002B2000F0DDF9002000F0DEF90520FEF77A
:1014600037FFE22000F0D4F91D2000F0D5F902206A
:1014700000F0D2F9042000F0CFF9E02000F0C8F924
:10148000012000F0C9F90120FEF722FFE02000F062
:10149000BFF9032000F0C0F90520FEF719FF012075
:1014A00000F0B6F90520FEF713FFE62000F0B0F9D2
:1014B000002000F0B1F9D92000F0AEF9162000F0BC
:1014C000ABF9B02000F0A4F9202000F0A5F900202D
:1014D00000F0A2F9012000F09FF9DF2000F09CF954
:1014E000012000F099F90F2000F096F9002000F09B
:1014F00093F9B42000F08CF9022000F08DF913204C
:1015000000F08AF9002000F087F92B2000F084F920
:101510000A2000F081F9002000F07EF9082000F098
:101520007BF9002000F078F9B62000F071F9012075
:1015300000F072F9202000F06FF9002000F06CF943
:101540000C2000F069F90A2000F066F9002000F094
:1015500063F9042000F060F9BA2000F059F9052081
:1015600000F05AF9B82000F053F9072000F054F9C0
:10157000012000F051F9362000F04AF9002000F077
:101580004BF93220FEF7A4FEBE2000F041F9062000
:1015900000F042F9802000F03FF9012000F03CF912
:1015A000F02000F039F9002000F036F9002000F0BA
:1015B00033F9D02000F02CF90D2000F02DF9F020A7
:1015C00000F026F9032000F027F9292000F020F987
:1015D0004FF47840FFF7FCFE10BD000000140240FD
:1015E000A8000020FFF778FCFFF722FFFFF7BCFA06
:1015F000FFF780F8FFF7D8FCFFF73AF900BFFEE7E6
:1016000000B59FB007A81D90CDF878D010A8FEF7C0
:10161000F0FF0020079008900320099000200A9016
:101620000B900C900D90009001900290039004900C
:101630000590069001217820FFF772FB01210846F2
:10164000FFF77EFB4FF400700E9001208DF83C00F8
:1016500000208DF83E0001208DF83F0002208DF81B
:101660003D000EA95E48FEF7FDFF4FF400715C4897
:10167000FFF7D7F80C2200215A48FFF7AFF80C22E9
:1016800001215848FFF7AAF80C2204215548FFF71A
:10169000A5F80C2205215348FFF7A0F80C220621DB
:1016A0005048FFF79BF80C2207214E48FFF796F8A9
:1016B0000C2208214B48FFF791F80C2209214948D8
:1016C000FFF78CF80C220A214648FFF787F80C2216
:1016D0000E214448FFF782F80C220F214148FFF702
:1016E0007DF80C2207214048FFF778F80C220821EA
:1016F0003D48FFF773F80C2209213B48FFF76EF8CD
:101700000C220A213848FFF769F80C220B213648D1
:10171000FFF764F80C2211463348FFF75FF80C22FC
:101720000D213148FFF75AF80C220E212E48FFF701
:1017300055F80C220F212C48FFF750F80C220021FD
:101740002748FFF74BF80C2211462848FFF746F8C8
:1017500002208DF83C0003208DF83D0000208DF81C
:101760003E008DF83F004CF2F3700E900EA91D481C
:10177000FEF778FF4FF680700E900EA91A48FEF71C
:1017800071FF01200E900EA91548FEF76BFF4FF474
:1017900080500E900EA91548FEF764FF06201090A9
:1017A000002011901290102013900020149015909A
:1017B0001690179018904FF48050199000201A90AE
:1017C0001B901C9007A81D90CDF878D010A8FEF7AC
:1017D0009DFE01210620FEF77FFE1FB000BD000028
:1017E00000140240000C02400010024000180240A9
:1017F0004FF0D84148884888704700B5024600231A
:10180000104600F005F8FFF7F3FF0346184600BD49
:101810004FF0D841088070474FF0D841488070475A
:1018200000B52C20FFF7F4FF00BD000073636F725A
:10183000653A000000000000000000000000000009
:101840000000000004040404040400040000001468
:101850000A0A0000000000000000000014143F14F9
:101860000A3F0A0A000000041E1505060C14150F95
:101870000400000012150D0A142C2A1200000000AA
:10188000040A0A1E151509360000000202010000B4
:1018900000000000000000201008080808080810D8
:1018A00020000002040808080808080402000000DC
:1018B0000004150E0E150400000000000404041FAF
:1018C000040404000000000000000000000000020A
:1018D000020100000000001F0000000000000000E6
:1018E00000000000000000020000001008080804CA
:1018F00004020202010000000E1111111111110E5B
:1019000000000000040604040404040E00000000AB
:101910000E1111080402011F000000000E11100C2E
:101920001010110E00000000080C0A0A091E081809
:10193000000000001F01010F1010110E0000000038
:101940000E09010F1111110E000000001F090804FB
:1019500004040404000000000E11110E1111110EF8
:10196000000000000E1111111E10120E00000000E8
:10197000000004000000000400000000000000045B
:1019800000000004040000201008040204081020D5
:101990000000000000001F00001F00000000000207
:1019A0000408102010080402000000000E111108A5
:1019B00004040004000000000E111915151D011E7D
:1019C0000000000004040C0A0A1E1233000000008C
:1019D0000F12120E1212120F000000001E11010150
:1019E0000101110E000000000F1212121212120F4C
:1019F000000000001F120A0E0A02121F0000000061
:101A00001F120A0E0A020207000000001C12010148
:101A10003911120C000000003312121E1212123380
:101A2000000000001F0404040404041F0000000060
:101A30003E080808080808090700000037120A06CF
:101A40000A0A123700000000070202020202223FC7
:101A5000000000001B1B1B1B1515151500000000C6
:101A60003B1216161A1A1217000000000E1111115F
:101A70001111110E000000000F12120E02020207D7
:101A8000000000000E1111111117190E18000000AE
:101A90000F12120E0A121237000000001E1101066A
:101AA0000810110F000000001F1504040404040EA8
:101AB00000000000331212121212120C000000007B
:101AC0003312120A0A0C0404000000001515150E4A
:101AD0000A0A0A0A000000001B0A0A04040A0A1B78
:101AE000000000001B0A0A040404040E00000000A9
:101AF0001F0908040402121F0000001C040404044F
:101B0000040404041C000002020204040808081073
:101B10000000000E08080808080808080E00000465
:101B20000A000000000000000000000000000000AB
:101B300000000000003F0004000000000000000062
:101B4000000000000000000C121C123C000000000D
:101B50000302020E1212120E000000000000001C10
:101B60001202021C000000001810101C1212123C7D
:101B7000000000000000000C121E021C000000000B
:101B80003804041E0404041E000000000000003C91
:101B9000120C021E221C00000302020E1212123747
:101BA00000000000040000060404040E0000000011
:101BB0000800000C08080808080700000302023AA1
:101BC0000A0E123700000000070404040404041F76
:101BD000000000000000000F1515151500000000A2
:101BE0000000000F12121237000000000000000C6D
:101BF0001212120C000000000000000F1212120E50
:101C0000020700000000001C1212121C1038000015
:101C10000000001B06020207000000000000001E7A
:101C2000020C101E000000000004040E040404183E
:101C3000000000000000001B1212123C0000000017
:101C400000000037120A0C0400000000000000151C
:101C5000150E0A0A000000000000001B0A040A1BFF
:101C60000000000000000037120A0C04040300000A
:101C70000000001E0804041E0000001808080804E4
:101C800008080808180008080808080808080808CC
:101C900008080006040404080404040406000225DD
:101CA000180000000000000000000000000000001C
:101CB000000000000000000000000000000808080C
:101CC0000808080800001818000000486C241200DA
:101CD0000000000000000000000000000024242498
:101CE0007F1212127F12121200000000081C2A2A12
:101CF0000A0C1828282A2A1C08080000002225158A
:101D000015152A585454542200000000000C1212D9
:101D1000120A76252911916E0000000606040300C0
:101D2000000000000000000000000040201010082B
:101D300008080808081010204000000204080810D5
:101D4000101010101008080402000000000008081D
:101D50006B1C1C6B08080000000000000000080855
:101D600008087F08080808000000000000000000C4
:101D70000000000000000606040300000000000050
:101D80000000FE0000000000000000000000000055
:101D90000000000000000606000000008040402017
:101DA0002010100808040402020000000018244259
:101DB00042424242424224180000000000080E083D
:101DC000080808080808083E00000000003C4242DD
:101DD000422020100804427E00000000003C4242E5
:101DE000201820404042221C000000000020302823
:101DF000242422227E20207800000000007E02029F
:101E0000021A26404042221C000000000038240232
:101E1000021A26424242241800000000007E2222BC
:101E2000101008080808080800000000003C4242A2
:101E3000422418244242423C000000000018244280
:101E4000424264584040241C000000000000000092
:101E50001818000000001818000000000000000022
:101E600000080000000000080804000000402010E6
:101E700008040204081020400000000000000000D8
:101E80007F0000007F000000000000000002040846
:101E9000102040201008040200000000003C4242D4
:101EA000464020101000181800000000001C225AA4
:101EB000555555552D42221C0000000000080818F9
:101EC0001414243C224242E700000000001F22229A
:101ED000221E22424242221F00000000007C424299
:101EE000010101010142221C00000000001F2242EA
:101EF000424242424242221F00000000003F421282
:101F0000121E12120242423F00000000003F421225
:101F1000121E12120202020700000000003C2222E0
:101F2000010101712122221C0000000000E7424251
:101F300042427E42424242E700000000003E080862
:101F4000080808080808083E00000000007C10107F
:101F50001010101010101010110F00000077221236
:101F60000A0E0A1212222277000000000007020265
:101F7000020202020202427F0000000000773636B1
:101F800036362A2A2A2A2A6B0000000000E3464639
:101F90004A4A52525262624700000000001C22412D
:101FA000414141414141221C00000000003F4242AA
:101FB00042423E020202020700000000001C2241D1
:101FC000414141414D53321C60000000003F4242FC
:101FD000423E1212222242C700000000007C424210
:101FE000020418204042423E00000000007F4908E1
:101FF000080808080808081C0000000000E7424222
:10200000424242424242423C0000000000E742425B
:10201000222424141418080800000000006B494909
:1020200049495555362222220000000000E742248B
:1020300024181818242442E7000000000077222208
:10204000141408080808081C00000000007E212065
:10205000101008040442423F0000007808080808F5
:1020600008080808080808087800000002020404AC
:1020700008080810102020204040001E10101010EA
:1020800010101010101010101E0000384400000036
:102090000000000000000000000000000000000040
:1020A000000000000000000000FF00060800000023
:1020B0000000000000000000000000000000000020
:1020C000003C4278444242FC00000000000302024F
:1020D000021A26424242261A0000000000000000B8
:1020E0000038440202024438000000000060404012
:1020F00040784442424264D80000000000000000E2
:10210000003C427E0202423C0000000000F08808D1
:10211000087E08080808083E0000000000000000D3
:10212000007C22221C023C42423C000000030202CE
:10213000023A4642424242E700000000000C0C0016
:10214000000E08080808083E0000000000303000BB
:102150000038202020202020221E00000003020240
:102160000272120A1612227700000000000E080800
:10217000080808080808083E0000000000000000E9
:10218000007F9292929292B700000000000000003F
:10219000003B4642424242E70000000000000000CF
:1021A000003C42424242423C00000000000000006D
:1021B000001B26424242221E0207000000000000CF
:1021C000007844424242447840E0000000000000B1
:1021D00000774C040404041F00000000000000000D
:1021E000007C42023C40423E00000000000000082B
:1021F000083E080808080830000000000000000041
:1022000000634242424262DC000000000000000025
:1022100000E7422424140808000000000000000029
:1022200000EB494955552222000000000000000043
:10223000007624181818246E00000000000000002A
:1022400000E74224241418080807000000000000DA
:10225000007E22100808447E000000C020202020BC
:102260002010202020202020C0001010101010105E
:102270001010101010101010101000060808080898
:10228000081008080808080806000C32C200000000
:1022900000000000000000000000A1F600007FFC2C
:1022A0007FFC7FFC7FFC7FFC7FFC7FFC7FFC7FFC56
:1022B0007FFC7FFC7FFC7FFC00000000D2BA404026
:1022C000202027FE09208920527C524416A82B98F2
:1022D0002250E220223022502288230E2204BEA760
:1022E00000000FF008100FF008100FF008100000A9
:1022F0007E7E42427E7E424242427E7E42420000DA
:10230000C7FD0000F9FE09004904498449484928ED
:102310007D10051805283524C5440584290011FEC3
:102320000000B6AF002000207E20002000FCFF242B
:1023300010241024242422244F44FA4440840114FD
:1023400002080000CAB5010000803FFE280446884C
:1023500004800880068004807FFE00800140022007
:10236000041018186010D1E90000F840084048A097
:102370004890490E4BF07C00048406443548C5481B
:10238000041017FE08000000B3C900A000900080F0
:102390003FFE208020803E88228C2248225022202E
:1023A0002A604492410A86060002CEAA008010806C
:1023B0000C8004847FFE0104010401840144022492
:1023C000022404040844102820100000CFB00000AC
:1023D0003FFC0004080404040304011400640184A5
:1023E0000604380410040004002400140008B9DFB7
:1023F000200023F822482FFE3248AA48ABF8A0005C
:1024000023F8224822482248224820B023082C04DE
:10241000A3AC00000000000000000000000000006D
:10242000000000000000000030003000100020001C
:102430000000D7A8010001003FF802000200FFFEE3
:10244000040008200FF000200040028001000080FE
:1024500000400000D7A220801040104007FE8040BE
:1024600048404840104013FC2040E04020402040BD
:1024700020402FFE2000C1A6010001000100010044
:102480007FFC0104010401040104020402040404A9
:102490000404080410282010C1BF1FF010101FF002
:1024A00010101FF00000FFFE11101FF011101FF0A0
:1024B00001001FF80100FFFE0000B3C900A000905A
:1024C00000803FFE208020803E88228C22482250BF
:1024D00022202A604492410A86060002BECD1020C6
:1024E0000828FF24002400207FFE425042507E50E6
:1024F00008502C502A904A9289122A0E1000C3CEFE
:10250000082008207EFE08301C682AAECB240C2050
:1025100007F808100C203240018003000C00700006
:10252000CFEB100010FC1084FEFC388434FC548483
:10253000508490FC0000010008842882281267F073
:102540000000A3A100000000000000001000100027
:10255000100010001000100010001000100000000B
:1025600010000000B5E70100010001003FF821085C
:1025700021083FF82108210821083FF8210801021D
:10258000010200FE0000D7D300003FF00020004011
:102590000080010001000104FFFE010001000100B4
:1025A0000100010005000200BFAA00007FFE042018
:1025B000042004200420FFFE04200420042008201E
:1025C00008201020202040200000B7A20200224056
:1025D000223022107FFE2400040007E00C200A2095
:1025E0000A20114020804160861C1808B0E5101CAC
:1025F00011E011001100FD0011FC398435485548E7
:102600005230921012301448108E11040000CDE2A6
:10261000082008200F2011201120213052288A2460
:102620000C2204220820102020204020802000209E
:10263000CFDF10401850104C204823FC4840F84091
:1026400013FE20407C48003000221CD2E30A000622
:102650000002B2E2400227C224428452455255523F
:102660001552255225522552C552410242824242FC
:10267000444A4804CAD4002040282024302427FE9D
:102680000020E02027E0212021102110210A29CA62
:10269000360620020000DDF7DEF7DEFFDEFFDEFF9C
:1026A000DEFFDEF7DDFFDDFFDCFFDDFFDDFFBCFF72
:1026B000BCFFBBF7DCFFDDFFDEFFDDF7FDF7DCF77E
:1026C000DAF7BAF7D8FF96F795EF53E732DF12DF64
:1026D00011DF10DF10D7CECECECECDCECECEADC652
:1026E000ACC6ACC6ACC6ACC6CCC68BBE8BBE6BBED5
:1026F0008BBE8BBE6ABE8BBE8ABE8BC68ABE6BBECD
:102700008ABE8AC68BC68BC68BC6ABCEABC6CBC6C3
:10271000CBC6CBCEACCEACCECDCEADCE8DCEAFCEAD
:10272000D0C6B0C6D1C6B1BE71B691B671B671B6DB
:1027300091B671AE50A650A60F9E309EF095F095C2
:10274000D095F095D08DF095F08D31961196129E22
:10275000109E319E11961296129611961296F08D39
:10276000118EF1953196F08D10961196F08DF095B1
:10277000F095EF95EF950F96CE8DCE8DCE8DCE95B3
:10278000CD95EC95CB95EB950B96EA9DEA950A963F
:102790000B96EC9D0B9EEB9D0B9EEA950B96EB9D8D
:1027A0000B9E0A9E2AA609A609A62AA62AA62BAE31
:1027B0000AA62BAE2CAE2CAE2CAE2BAE4AAE2AAE59
:1027C0002AAE2AAE0AA62AA60AAE09AE09AE29AEDC
:1027D00029AE09AEE9ADBDF7DDFFDDF7BDF7BCF70A
:1027E000BBF7BBF7B9F797F776EF77EF97EF76EF91
:1027F00076E776EF97EF98EF98EF98EF98EF77EF0F
:1028000034E732DF10D7CFCECDCE8CC68BBE8ABE9A
:102810008BBE6BB64BB66BB62AAE4AAE4BAE4AAE6B
:102820002AAE4BAE0AA60AA60AA609A6E99D0AA6E2
:1028300009A60AA629AE29AE4AAE4AAE4AB649B69C
:102840004AB64ABE69BE6ABE6ABE89BE8ABE8AC62A
:102850008AC68ABE6ABE6BBE6BBEB2CED8D618DF41
:1028600091BE70BE90BE90BE70B652B672B651B6F2
:1028700051AE71B651AE30AE10A632A6329E319E28
:102880000F960E8E509E3096108E3096109E2F9E74
:102890002F9E0F9EF095F095F09510961096F08D66
:1028A000EF8DF095F095F095D08DD08DD085F08599
:1028B0000F8EEF8DCE8DCF8DAE8DCE8DEE8DCD95D5
:1028C000EC95EB95CA95EA95CA95CB95A98DC895D7
:1028D000AA95CD9DCD9D10B610AEAEA5AEA551B6B4
:1028E000D3CEF6D6B4C673C694C6B5CED5CE72C610
:1028F00052BE16D772BEEDADCA9DEA9DEA9D0B96FB
:10290000CA95E995099EE99DC995C99DCA9DAA9D4B
:10291000C99DCA9D899DBAF7BBF79AF7B9F777EFBA
:1029200076EF75EF53E710DFEFD611D711DFF1D651
:10293000F0D6D0CED0CED0CED1CEB0C6AFC68DBE22
:102940006CBE6BBE6BB64BAE2BAE2BA60BA60BA60E
:102950000A9EEA9DEA9D0A9ECA95CA95E995E9955F
:10296000EA95C995EA95CA95C995C995C995C99534
:10297000E995099E099EE99D09A62AA62AA62AAEDE
:102980002AAE4AAE4AB64AB64AB66EBE70C6D4DE63
:10299000B6E6B6DEB7DED9EED9EEFCF61DF7FCEEF4
:1029A000FAE6F9E6D8E6B7DED8DEF9DE7BEF3ADF05
:1029B00077C6F8DEF9DE1AE7B9DED9D619D7B7C679
:1029C000F2A5EF9D109EF095D08D319E109E2FA602
:1029D0000E9E2E9E0F96EF950F96309E319E109E66
:1029E000109E109E109E0F96EF95F095F08DCF8D56
:1029F000EF950E96ED8DCD8DAD8DED8DEB8DCB954F
:102A0000EA95C995C98DA98DA98DEA9D73BE76CE2B
:102A1000F8E6FCF63EFF5DF75DF75DF71CEF3DF76E
:102A20003DF7FDF6DDEE1DF7DDF6DDEEDDEEFDF644
:102A3000DCEE1DEFFCEEFAE6FAE6B6D62FAEA89570
:102A4000C795A895A895C895C78DA78DA78D87957B
:102A5000678D678D689578F777EF36E736E736E765
:102A6000F6E6F3DEB1D690CE90CE71CEB3D6B3D625
:102A700072C671CE71C64FC670BE2EB62DAE2BAECD
:102A80002BA64CA60BA60BA60B9E0B9EEA95CA95F1
:102A9000CB95EB95CB95CA8DAA8DA98DAA8DAA8DC4
:102AA000CA8DA985A98DC98DC98DA98DA98DC98DFD
:102AB000C98DC995A895E895E99D099EE99D099E4E
:102AC000079E079E07A608A62BAE95D6B8E659E640
:102AD0007AE6BCEE9CE6BBF6BCF6FDFEFCF6FCF628
:102AE000FDF6DDF61FFFFEF61DEF78CED9D699DE96
:102AF000BAE6BBE6FDF6BCEE78D6B7D6D8CEF7CEB2
:102B000074B631A62F9E3096CF8D509E4FA62DA61F
:102B10002EA62EA62FA60F9E1096309E30A60F9E94
:102B20000E9E2FA64F9E0E962F9E1096108E1096DC
:102B3000109EEF95CD8DED8DED95CC8DEB95C995D6
:102B4000A88DA88DA88DA98DC995EDA531B691AD9B
:102B500055CED9E69ADEDDEE1EF73EFF3EFF1EFFA4
:102B6000BDEEDDF6DDF6DDF6DDEE1EF7BDEEDDEEEB
:102B7000FDF6BBE6FCEE99D6BADE98D652BEAA9513
:102B8000A88DA895A88D4785688DA995EB9D8A9DF0
:102B90008995CB9D4995DCEEDBEED9E6FAEEDBEECE
:102BA000DCF6DBEEFBEEFBEEFCF6DCEEFDF61EF7F4
:102BB0001DF7FDEE1CF71BF75CF77BF796CE94C66E
:102BC000EEA5ECA5EB9DEB9DEA9DEA95CA8DAA8D3D
:102BD000CA8DCA8DAA8DCA8DA98DA98DAA858A850F
:102BE0008985697D27752775477D6885A98DA88D9D
:102BF000C88DA88DC795E89DE79DE79DE79D079E39
:102C000007A6E79DE9A50EB6D7DEFBF6BCF6DDF616
:102C10009CF6DCF69CF6BCEEDDF6DDF6DDEEDCEED9
:102C2000DDF61EFFDEF69DEEDCE6FADEFADE1BE7E1
:102C3000FAE61AEFF9E6B9DE59DFF6C6F095EF9538
:102C4000CD8DCC8DEF95EF95AE8D0F9E2FA62DA639
:102C50004DAE4DAE2EA60E9E109E31A62FA60F9EF7
:102C60000FA631AE31AEF1A5F09D119EF0953096D4
:102C70002F9E0E96CC8DEC950B960A96099EC995C3
:102C8000A88DC895C98DC98DA88DCA8DAA8DAA9504
:102C900016D7DBE6FCF61DF73EFFFDF6DDF6FDFE82
:102CA000DDF63EF71EF71DEF1DEF1EEFFDEEFCE615
:102CB0001CEF1CEFFBDE3BE795C6F3CEAB95C8954A
:102CC000C98DD1B6B1B6CEA5D5CEB7D6D9D678CE28
:102CD00096CE56C6F5BDBBEEFCF6FDF61DF7BCEE76
:102CE000BCF6DDF6DDF6FDF6DDF6FDFEDDFE9CF65E
:102CF000DDFEBDF6FDFEDDF6DCF6FDFEFDF6DBEEEF
:102D000078D6D7DED7CEF6C630A6EC95CA8DAB8D79
:102D1000CA8DAA858A85AA858A858A858985697DDD
:102D2000497D08752875487D898DC995A995A8950F
:102D3000A895C895E79DE79D06A606A606A625AE1A
:102D400006A627AE49B615E7FCF69CF6BCF6BCF61F
:102D5000FDFEDDF6BCF6DDF6DDFEDDFEDDF6BCF6E5
:102D6000BDFEFDFEDDFE9CF6DCFEBBEE1CF71AE7A9
:102D700018DFF6D652BE31AE31A6EF9D0E96CC8D41
:102D8000EC95CB8DCC8DED95ED952D9E2CA62CAE96
:102D90002BAE4CAE2CA60EA630A630A610A611A6C1
:102DA000F6CE19DF3CEF1CEFFCE61CDFFBD697BE2E
:102DB00033AECF95CE95EC95EB95EA9DEA9DEA9DD5
:102DC000C995C995CA95CA95CB95A995CB9D4A8DAC
:102DD00093BEDADE1DEF3DF75DF7FCF6DCF6DCF6C0
:102DE000BCEE1DFF1EFF1DF7FDF61EF7DDF6DDF63E
:102DF000FEF6FEF6FDF61CEFD8DE95CEF4CEAD9DC8
:102E00008B95AB95EC9DEEA594CE96D655CE76CE11
:102E100098D699D699D6DDF6BDEEDDEEDDF6FDF657
:102E2000BCF6DDF6DDFEDDF6FCF6FDF6DDFEFDFEB4
:102E3000DDF6BCF6DDF6FDF6FDF6DDF6DEF6FDFEB2
:102E40009BEEFCF6D9DED6CE73B60C9E0A968A8D22
:102E5000C98DA985A985687D898D898D8A8D70B672
:102E600072B671BEF5CE53BEAC9D0EAE10AED2C6DC
:102E70006EBEB0C66EBE6EBE08A649B628B66ABEA5
:102E800007A626AE2DB6B6DEBBF6BBEEBAE6B9E6B1
:102E90009AEEDCF6DCEEBCF6BCF6DDF61EFF1AEFB1
:102EA0001CEF58DEDCEEFEFE1DFFFCF6FCF696DEA7
:102EB00090C66DB64FB62EAE0C9E0C9EEC9D4DA6E8
:102EC0000A9E2BA62CA62CA60CA610A651AE4FB679
:102ED0006EBE8FC6B1CE72C6B6CEF7DE3AE71AE73F
:102EE000FAE61BF71DF7FDEEBADEBBDEBADEB9CEA1
:102EF00013A6CF8DAD8DEC950DA6CC9D2EA64EAE16
:102F00002B9E0EA6B4C6B3CE3BE73AE75BEF3CEF91
:102F10001BEF79D69DF77CFF7DF77DFF3DFFBCF66B
:102F2000DBEE1DF71DF71DEFDBE6BBE69BEEFCF6C7
:102F3000BCEEFDEEDDEEBBE6BBDE1BE73BE71BE7D1
:102F40001BE7B6C6CD9DEFA5CD95CB8D6D9DF2B59A
:102F500099DE7ADE5AD6DDF6DDF6FDF61DF7DDF6F2
:102F6000DDF6FDF6FDFE1EFF1EFFFDF6FDF6DDF6AD
:102F7000FDFEDDFEDDFEBCEEDDF6BCF6FDF69BE6FD
:102F8000FCF699DEFADEAFA5A995CA95AA8DE9955A
:102F9000C98DA98DA98DA88DA98D4C9E8DB6CD9D6D
:102FA00051BE11B633BE94AD10B66FBECEBEC89D35
:102FB000E8A50AAE8FBEEAA54AAE28AE06A607AEC1
:102FC0004CB671CEB8E69AEE9CEEB9E6B8DE77DE86
:102FD000FAF6FBF6FBEEFDEEDBEE1CF7DCE676CE5A
:102FE000D8CEFCE61AE7D9DE77D6B6DEB6D6B2CEB4
:102FF000D4D616E718E7D6CED4C6EDA5EB9DCA9D6C
:1030000049B609AEEBA590BED2C6F7D631B691CE81
:10301000B4D6F8E6FCEE7EFF1BEF1DEFD1A41BF744
:103020003EFFFDEE1CEFBADEB9D6D8D6FAD6B9C649
:1030300014A6AF85D08D91B6D4BE71AE54CFEEA597
:10304000CB950FA6AF9D17CF34B614B69BEF5BEFB1
:103050003BEF3BE7FADE7EF75CEF1DE7DCE61BEFBC
:10306000FCE6FBEEDAE6BADE99D6FBEEBCE618C665
:1030700099CEFDEE7DEEBBDE93A5709DB29D73B63D
:1030800051B653B635AED095CF95AE95D7BEF2AD0D
:10309000F3BD36CE59D6DDF6FEF6BCEEDDF6FDF616
:1030A000DCEE9CE6FDF6BDF6FEFEFDF61DF7BCEE81
:1030B000BCEE7BE63EFFDDF6BCEEFDEEFBDED8D6D9
:1030C00097CE1CE778CEB5CE17CFCC9DAEB6AA95DD
:1030D000AA8DAA8DA98DA88D8885CA8D0FA671AEDF
:1030E000D0AD54BE54CE71C696CED7DEF4D6F5D64A
:1030F00091BE4EB6EFC6B1BE0FAEC79DEDC626AEB1
:1031000007AE2EBE73D654D6BCEEDCEEDCEEFDF67A
:10311000FDF6DDF6DCEEDCDEFBEEBAEE1EFF3DF783
:103120007DF757CECFB592C673CEB7DEB8DE79EF56
:1031300050C62DBE32C610BE34DFF5D66FBE6FBE90
:103140004CBE49B629B649BE0AB6F3D659EF5BEF75
:103150005BF77DFF1DF71DFF1DF71DF76D9C5DFFE4
:10316000FCF6DBE6F9E613BE50B6F1A577B612A67B
:10317000D195CE8DEF95ED958C8DEC95AC950CA6FB
:103180002DA6CC9D4BA651A6B6DF14C7F3AD39DFF3
:1031900094BE32AE54AEF9D655C633B611B6B2C6E9
:1031A00030B6F6D6DADE99D67CD69BDE9BDE7ADEAA
:1031B000BDE69CEEDCEEFCE6DCDE37BEB395329E6F
:1031C00032A6AF95AD8D6B8DCC9572A612AE6D8D7E
:1031D0004F8D14AE58C69CEEDDF6BCEEFDF6DDEE6E
:1031E000DCEEDDEEFCEE1DEFFEF6DDEEFDF6DDF6CF
:1031F000DCE618C67AD6BBE6DBE6B9D6929DCF9D53
:103200006B8DCD958D95CB9DA995E995CA95C99561
:10321000EA8DC98DC88DC88D68854985ADA5EB8CB3
:1032200054C696CE77D678D6FCEEB8DE98D6D5D6EC
:10323000F6D6B4CED3CE4FB66DB628A6E69D84950D
:103240008595E89D4BB6D6D698E699EEDAEEFAEE7D
:103250001CFFFCF61CEFD9DE1CEFDBEEDCEED9DE4A
:10326000F3BD19E75AEFFCE61AEF3AF792D6D6DE2D
:10327000D7E696D639E71BE7DBE696DE94D650CE46
:103280006DC64AB629B64AC6AED6AFD6F3DEB2DEB2
:10329000F4E65BFFFBF61BFFFCF6DAEE32C6F6DE69
:1032A00018E7D8E67AF717DFD1CE4EB632B697C612
:1032B0007BE7F9D6FADE33B614D752E7B4E752D734
:1032C00071BE4DB62CA6CD9D6DB6EED64FC691CE35
:1032D0004EB62DAEF09D55C6F7D6D6CEB5C674BE49
:1032E00094C61ADF1BE73CEF9AD6B9DEDBE699D627
:1032F0009BE6BBDEBACEDAD6DAE616DF0F9ECD8DC0
:10330000109E53AE52AEF1BE2DA670B68C8D91B606
:10331000B4BE34BE99D6DDF6DDF6DDF6FDFEDDF693
:10332000BCEE7ADE77CEFADEBCEEDDF6BCEEDCEE8D
:103330009BDEFCE61CEFDADE79D69ADEFAE6D9DE11
:10334000F8DED7CE18D7EEA50CA6E99DAA95EA9D82
:10335000CB95EC9DEB9D6FB672C696D6DADE36C67F
:103360004F9DD8D6DADEB8DE78D613BEB5CE6FBEA6
:103370008FC6CFCE6BB6E8A5C69DC59D28AE09B653
:10338000A6A567BE86A5C68CCAA52FCED6E6DAE668
:10339000B6DED6D61ADFF7CE3BDFB6CE11B6CEA557
:1033A000EDA50FB60FBEF8E6B4DEF6DED7E61BF7E6
:1033B0003AEF91BEB2C695D672CE4DBE31D7EFCEA2
:1033C000ABC6ACBE89BE0BD7CCD6AACEEBD6CAD67E
:1033D000CAD6CAD68ED6D6E619EFD5E692CE4DC657
:1033E000AFCEAECEF2D670CE17E73BE73CEF1CEF88
:1033F00097DE5BF7FBE619DF75C672BED5CE8FAEE2
:103400004FAE8BB6EC9DEA958CB6EDCEAEC6F0C64F
:103410006FAE30A6B3BEF3C650B64FAE2F9E53A6C6
:1034200012A633AE95C6B8D6B8D63CE7DCDEDBDEF6
:10343000BADEBAD6DBCEDCDEFBD6B1952EA6AFC6A1
:10344000D1CECDA570C6ECA50BAE0ABEAA9DECAD43
:10345000ACA58FA556C6FDF6BDF6DDF69CEEBCEE1E
:10346000BDEEBBE6F9D6F4B558D6DBEEBBE6DBDE47
:10347000FCE6BBE6DAEE99D657C6B5CED3D6F3DE78
:10348000B3D6D5D6D3D653C6D2CECEC60DC7CFC6A9
:10349000AFBED1C651B672C6D8E657D657D6B5C557
:1034A000D7C5BAE699DEBAE6B7D654CE93CE4CBEAF
:1034B000CDC612D76CBECBA56AB6CEC610D771E703
:1034C0008AC68FD64ECE0CBE8BC6AFCE8ECE4DC624
:1034D0000EB62EB66EB691BE10B650DF50DF4EE778
:1034E00071E795E7F0D6B1D6ADCEC9AD6BBECAAD2A
:1034F0000AAEE9A5CAA5CDCE0FD7EFD66BC68AC650
:10350000A9CE8BCE4BBE49BEABCEA8C668BE0CD7EB
:1035100068C6A7CE2CDFABCE0CD7ECD671CE8BB560
:103520008BC6A9C68ECE8DCEF3D6F2CE92CED9DE84
:1035300018E7D6D616DF53BECF9DCD95AD95CC9D61
:103540004CB66BBE2DAE4EB6B2CEF1B551BE92BEEC
:10355000B2BED4C692C653BE71BE51B630A6D3BE5B
:10356000F3C6F3C616D738DFD7D6F9DE97D61AE7F3
:10357000FADEDBDEFAE6FCE6DADE94C613CF0DAE49
:103580006FBE33D752E7CFD6F1D693CE2EC670CECC
:1035900095DE15C6BADE1DF7DDF61DFFFBF63DF71D
:1035A000FDEEFDF6FDF61DEFDBEE39EE19E67BE6EE
:1035B000BDF6DCEE1CF71DEFFCE6F9E6B1CE6FBE02
:1035C0000AAECECECECEAECEEDCE4CB610D7CDCE50
:1035D000EED64CB652DF4EBED1C6AB9DB2C539F663
:1035E000F5CCF5C599DE79DE9ADED5DE6CBE4AB63D
:1035F0006BB62AAEEDCEC9ADC9A512D7D7F715EF78
:10360000F6EEB8EEBAEEB7E6D1DE92DE93DE18EF54
:1036100095CE30BE50C6D5DE39EF97EF35E776E769
:1036200078E758EFB7F731DF29B607A6869D07AED2
:1036300026AE87BE69B651DF8CC688C64CE70BD76D
:103640004EE70BD709D787C646BE68C669C627BEF0
:1036500046B626B669C6A9D60ADF0BC6F4E60894B4
:10366000236BEAC58AC6C9C60CD70ED72FD730DF61
:10367000EFCE12DF93CE73CED6CE12B631B636D79A
:103680006FBE2CB613CF51BED4D61BEFFAE6DADEEE
:10369000B7D61AE73CEFFAEEB8DED7DEB7DE96CE45
:1036A000F3C693BED3C694C6DAEF16D715D7B4C601
:1036B000B2BE32BE92BED2C64FBE2DB62BAE2AAE21
:1036C0004DB6ECAD4CBE2DBE32C6FAE6BBE6F9EE09
:1036D00058D6B8DEB2B5B6D6B9DEDDEEBDF6BDF66B
:1036E000BCF6DDF6DDF6DCF63AE65CEE3CEEDBFD44
:1036F0009AF57BEE9DEE9BE6DBEEBDF61DF7D5D68B
:10370000CDC66EBE2BAE2DAE0CA66DB629B689C643
:1037100029B649B6C7A528B62EAE4EB6D5D5B4D46F
:10372000D3E4B7F69ADE74DE90CE09B634E7D9E674
:10373000B4DEF3DE4DBE28BE8DCEF8E61AEFBCF641
:103740005AE65CEE79E63AF71AEF1BF7FBEEBAE6BB
:10375000DAE6B8DEB5CE1BEF7BDE5BDED7E6F7E65A
:1037600094CE34C6CBAD6A9DC6A5E7A566B647B66E
:10377000E8AD8BBEEDCECFD6EFD6CDD6CCD60ED71C
:10378000E9B528B648BE25BE27BEAACE46BE88CE1D
:1037900065BE0CD7EBBEEBCE89D52BA432CE899378
:1037A000C248C379839BC9C5AACECDDEF1DE33DF23
:1037B0001AF71BEF1CF7DCEE1DF73CF7F8E639E7CC
:1037C00032BE2FBE4EB64EB697D6FCEEFCEEDBE612
:1037D0005BEFDAE6DBE657CE19DF34BE35C6B6CE90
:1037E00071B62FA6C8740E9EEE9DAA85C9950DA62A
:1037F000ACB68BB6299E2CA629A609A6CA95E99D2A
:10380000099E6EB677E70EB693CEDAE6DAE6FBE609
:1038100079D691ADEFA518E7F9E6DAE69ADEFBE690
:1038200099D67AE6DDF6BCEEDDF6DDF6DDF6B7CD4F
:1038300095C5DBEEBDEEDCEEFBEEBAE6DBEEDAE6DE
:10384000F6DE17D793C6D9DE75CEF1B550BE09A600
:103850002AA68CBEF0C6CBA510BEAEAD73C576CD84
:1038600075D5B2C4CEC56CCEAAC66ABE6DBE92CEA8
:10387000B2CEECAD4AB60BBEF6E699E699E6BBEEE3
:103880009BE69AE61DFFFCF6DBF6DBEE7CDE5AD605
:103890009BEE9ADE73ADDBEEF9D5FAD5F6D574C59D
:1038A0008EAD6995C8AD68BE88C647B6ABBE8AC640
:1038B000EECECDCECBCEAAC627B626AEE5AD26AE91
:1038C00026AE25AE05AEC3A565B686BE68BE29B6D2
:1038D0002ABE6DCEEEDDC9D46AECC7AA8DDC258286
:1038E000A450E4680592079B058BB2EE39F7B5D674
:1038F000F9F61DFF1CF71DFF9AE6F9EED7DE72C63A
:10390000B2CEF7DE17DFB6D619E718DFF7DEB5CE91
:1039100013B614BE1ADF5ADF76C654C654B6319EAB
:103920008C8DAD95C8746A7D8B85AC9D50B651B6B3
:10393000CC9D0CA6CA9D6A95888DA995EB9D2CA659
:103940000AA649AE0AAE90C6F6DEB6DED6DE73C66D
:10395000ADAD10B6F0AD90A672B6B6CEFADEBAE650
:103960001BEFDAE6FDEEBAE6BCF67DF6D9DDF7C56B
:10397000B4ADD7CDB9D696C674C693CE74CE94CE18
:10398000B4D612C694DEBBEEDAE6D7DE0DAEA78D56
:10399000C895C9954FB6EBA5D3B592C533C535D5F6
:1039A000F0BCACBD69C6A7C6A8CE27BE28B607AE78
:1039B0004ABE6FC6B3D6D9E6FCEEDCEEFCF6BBEE33
:1039C0005AE61CF718D67ADEF9E6DBEEB9CD18D642
:1039D0001ADE59D675B58C95CA7C4E9DAB9453CEE4
:1039E00071CE89C6AEC6AABE27AE06B6A9C647B670
:1039F00068BE45B645B66BBE06AE06A6E59D45B6A5
:103A000026AE25AE26BE4DC64EC66ECEF5DE1AEFEC
:103A1000D9E6F1CD07A32EED07C369CB71ED279B46
:103A200004598771E581C3482682E7BA4ECCB9F6BE
:103A30001AE7FCF6DBEEFCF61BEF3AEF19E7D3D6FC
:103A4000B1CE71CEB4CE17DFD7DEB2BE30AE70AE1F
:103A500050A693B6B7CEF6CD17C638CE37CE4F9513
:103A6000497DF09DB7C6D5B5D3B52F9D4E9DCDA54B
:103A70004885A88D878D8EAE0A9E29A60DC74BB6A8
:103A800009AE27AE06A6C89D0AB64BBEE9B50AAE7A
:103A90002AB6ECAD2EB652A62FA6D1BE71BE94C6E4
:103AA000D1ADB3C6F2AD6E9D96D6FDF659E6FBEEEE
:103AB000FDEEBCEEB3AD6C8D0DAE2EBE15DFF9E69E
:103AC00099E6F9EEB7E6D8DE2FB62CA6289EC79D5C
:103AD00028AE8FBE73BE94C6DAE69ADDDAED4ECC20
:103AE000CBCC0ABEA79D2585E79DE89D6AAE4BB667
:103AF00011D7F3D6B4D615CE35CEBBE6DAEEB9EE95
:103B0000BBEE36D6D6BD52A570A55ADE5CEE5AE69F
:103B1000DBD5F7CDF8D54F9D8795C895ECBE8BB614
:103B20006CB689C68DBE28AE8BBE06AE24B625AE59
:103B300026AE26AE26AE28AEA9C647B60AB6CBCE6E
:103B4000889D6FC638EFD8E61BEF1CEF5CFF5DFF6A
:103B5000F5E52BCCEAE3C28189D3CEE411EDCEDCCE
:103B6000478AA461447AC882C98A089B26A2048A2B
:103B700052DDDBFEDBF6B8E6B5DED4DED0D6ADCE68
:103B80008EC6CEC68FBE6FAE30A6CF95B0950FA6AF
:103B9000D095B09D77C639D618C679CE17C651A52F
:103BA0000A854C9515BE18CEF7CD15C613B690B53F
:103BB0004FB54B8DE9950AA66AB608A629AE49AE5F
:103BC0008AB68AB6C69D869505A606AEACC6CECE8A
:103BD0006BBE879D25854FB66FB6CFBEAB9DF1CE30
:103BE0006FBE6EB6AFC632DF35E7F6E6B7DEFBEE88
:103BF000DEF67ADE3AE694C50DAE6CB62FD7F2DE6D
:103C0000B1DEAFD64BCE2BBE6CB6ACB6A89D06B619
:103C100047B62ABE51BE16DF97DE58DEB8D594E50A
:103C20000FBD0EA5CDCE72C64CBEA9A5CCD64CB646
:103C3000D0B553BEB3AD35C6D5CE73C60FC6B2C56B
:103C400018DE58CE39DEF9D559D65BDED5BDB1AD1B
:103C50002F9DAD8C909D497D88956CB6089E28A6B9
:103C600007A6E7A5B0C6E7A507A608AE05AE26B627
:103C7000E4A5E5A5A7A549B68DCE0ED70EB6B3D659
:103C800059EFF7DE3AEFBCEE1DF7B8CEF8E60A932F
:103C90004DD4EBDBE9BAD0D409B38CB3C99A4CDC70
:103CA000E581856966B2058AE58126722FB4689A36
:103CB000E9C20DDCB0D4D7F6D5E6AED6AAC66CBE46
:103CC0004BB64DA6F09D31A6F4B556C676BED0953E
:103CD000D08DD29515AE36B6D2AD37C656C657CEB4
:103CE000F2B5F1BD32C653B533B5CDAD71BEACAD95
:103CF0000DBE2AAE079E09A628A6A79587952485FE
:103D00004685C695E8A5CCC68BBE6BB66CBE2BB6F9
:103D1000E9A56695458DB0C66FB6B2BE30AE93CEFE
:103D2000D4D677C6D4CEF4CED4D61AEFFBEEFCF6BA
:103D3000DDF61AEF54D652CE4EAEEBA5668DEAC62E
:103D400089C687BE69BE48B608A6CBBEA695069EA4
:103D500027A6ABB6CEBE4EB6D4CEF3D670C630A52F
:103D6000D4C513CE4ED66CCE4FC6D2D6CCB50CB67B
:103D700050B6B1A50F852D9589846C95CEA5D8DE5A
:103D8000DADE97D637D6B6BD37BE91AD93A5109D76
:103D9000CA74EA5C497DA895C8A549A6C79D08B61E
:103DA00007A6877D2975897D487D6885C695E9A523
:103DB0006AB6EEC64CB6ECAD4DB6A895AA9534D70A
:103DC00092BE8B95AA95AD9D17DF77D671CD0FED7D
:103DD000459A0AB311D56DDC69D308A4F0DD2BDD5B
:103DE000A6920672469A8260E260858988AA4BB3E1
:103DF000ABC3E7B2E589689229AC6ABD0ABE2CAEB6
:103E00004C9E6FAEAFC60DB6F2A535B6F3A58C8548
:103E1000297D12B617CECE95AD95D2AD6FA56FA503
:103E200076CECEA5AFADF4C531B588956885677DF2
:103E300048756885E89D458D0485A474057DE79DDA
:103E40002AAE29AEEDCE2AB629B66BBE2AB608AE8A
:103E5000A59DC79D889DD4CE94C654BEB7CE5CF7B1
:103E60001DF7BBEEBDEEBAEEBAE61CEFBBE6FCF604
:103E70009BFE19E60FB62AAE09A62AA6898D067DF5
:103E800087956BB66AAEE79D49AE28A6868D079EDC
:103E9000E99D299E8885698D30B610BE2D95B1B5F6
:103EA0008E9D8DB50BB5689DABA5EED52FB5D3C551
:103EB00054BEF3B513B64E95D09D73AEB3B6B0A550
:103EC000B6D6F6C5F8CD99D698D636CE72A5F8CD29
:103ED000928D6D7D6D95ECADADADEDA5A995EEAD79
:103EE000AD9DEE9D298DCEBE6CB6CDC649B6CBC676
:103EF000C6A549B626AE2AB6C895AA8D8C8D0D9E4C
:103F00004A7D4A7D4B7D89854AC532EECEE42BD46D
:103F10006BC44FBDA592A6A2659249CC0BBD0DCD39
:103F20002CCC0772E25007A288BAA7BA05AA27AA22
:103F30000AABE571EEAB2C9B29B3D0E4C462AD951E
:103F4000CFA535BE54B638CE78D6F4AD90954C7D1D
:103F5000EF8DAF8D8E9DCDAD0DAE70BE73D655D6A7
:103F6000CFAD8A8D898DEB7C0B8DCB9D0EA68C956C
:103F70008985E78DE795E89D879DE67C467D49AE7E
:103F80008CC6EECE2BB68CBE6BBEACC6ABC689BEA5
:103F900027AE4AB609B678DEFBEE1DEFFEF6BDF69B
:103FA000BDF6BCEE9BE6BAE679CEB19D50AE15D714
:103FB00077DE58DE0DAE49AECCBE6CAECEAE0A9604
:103FC000888DCEC6AFBE4EB62DAEA88DA78D879577
:103FD0004485C795C98D8A8DEAA56DBED0C62EBE13
:103FE00070B54EA5AE9D89A56C954D9D0EA6CBAD29
:103FF000CCA56D8D8E95AEA5AE958E956B8572AE6A
:1040000058D6BBE67BE6D4B552A5F4B554B6F4BD9C
:1040100032B6D1B457CDF8D5FADDF9CDB3ADB5B5DB
:104020000F950EA62CAEE89DE79D27AEA5A584951D
:10403000C7A5069EC695A98D497D8B85CB8D8B85A1
:10404000AB8DCA8DCA958693ADD450EDD5FEECAC40
:104050000DCE29BD059BA7A229BB28BB0A9B868A3A
:104060004CC4E6920359659946AA87B288B220509B
:104070008579069A469AA79A4EC48B9BE461037B86
:104080000A9C36D657CED1AD4F8D4B7DCC854A7527
:10409000AD856D8D11AEB6D66C950FAE8B956FA6B6
:1040A0008A7D697D277D0B7D2A856B8D8B8DE97CD3
:1040B000287DE674047D468D647CA57CC374468DA2
:1040C000C8AD6ABE6CBE2BB62BB68BBEAAC6C6AD3B
:1040D000C59D6595669DBCEEFDFEFCF6DCF6FCF626
:1040E000DCF6FCF6BBE659C60E8DCA7CEEA50CAE1E
:1040F0002CB64CC689B62AAE0DAE0EA68C8D89851F
:104100004685B0BE19EF99E697CE6FAE667D86857F
:10411000C795468565850996C66C8985487DC69D87
:10412000C6AD27856BA52CBEAB95C97CCEA50F9ED1
:10413000AF9DCE9DEF952F9E8F9D90956D95F2BD75
:1041400093B570ADB2B5D4B5F0AD8ECE4ECE72C6CD
:10415000AFAD19E6F8DDFAEDB7CD519D4A9DB4C576
:10416000F1BD469507AE06A607A6C69DE7A5059E26
:10417000868DC795497D6A7DCB850C962D9E2C9E9C
:10418000EB9DCCAD09B56FED89BB869A4ECCF4F6AC
:10419000C7C4E7BBC9CB0DED6BE407BBECCBB6F6F0
:1041A00090EDA8ABEA82E7A1E69983812040058AD9
:1041B00008C309C3A7AA85A282716A93CCAC2EBD9D
:1041C000A69BA9AB28A40DA68C9D4B8508756A7D7E
:1041D0006A856B85B095CD95497D677D0775487D6E
:1041E0002775C66CA76C12A6CB7489958A95AAA56B
:1041F000679548AEE7A5E8A5C163A584C6A549AE05
:10420000C595E79D69B66AB649B688B647B6A6A50C
:1042100067A5ADB512CEDDF6BCF6DCEE9ADEB9DEF2
:10422000D8DED8DE58D6BBEEBBE636CEF4C533C6F4
:1042300031AEECA507A628AEEA95E995C795C68DDF
:104240006685AB9515D71AE7FAE652BE6885EA9DF2
:10425000EDA570BE6C954C8D277D8985487D497D87
:104260000885A995A89D6AAD8EAD8E958D8DAD956D
:10427000AD956C95F3BDF4C558D6F8D511B530CDD4
:104280008FB40DA5D2C5D8CD92ADEA84287DE66C59
:104290008DA5D7DDB7E5F5DCF5CCEDBD28B6ABCE09
:1042A000A69D47BEC7AD07AEE69DC595868D4885E0
:1042B000E69D069EE99D0AA6EBA54EB60EAE0CAE97
:1042C00029AD8DD54EED68D387AA73CD4DB466A3C5
:1042D00087B368A38DE4EDE468BBECCB6DE477FEB7
:1042E00072E5CFDC477A0451026905828692248AFE
:1042F00086A2E6B24ABBA369E9AB67AB259BCAAB12
:104300000EC54CA4405167A3ECA46A8D6B8DCE9D65
:104310008B9D4EBE32C6CEA56BBECAA5086D066586
:10432000E86CAF956D8D2B8DE874878D878D668DCC
:10433000859D07AE669D627C058D6BC685B5E58C57
:10434000237D858DA695E79D08A6A69DE484899D7D
:10435000EBA58D9DAC8CDCEEBCEE9AE613C671B677
:1043600051B696CE55CE9AE6B9CE33B6B6DE90ADFE
:104370006B9549AEE6A5E69DE895099E50BE71BED7
:104380008D9D11BE53BEEFB5F5BD59D658DE76CE24
:10439000B6CE75CE13BE12BE4FBEC69549954885A2
:1043A0008A9D0AAE8AA58BBDC9B5CBADCDAD4B8577
:1043B00011A6D5CD3BDE3AE6FAE577D5B5CD77D572
:1043C00057DD79E558E519E617D616C6087DA564C8
:1043D000488D8A9D2995089589A5C79D08A607B689
:1043E0000DCF6BBEABC64CB6C89D658D4AAE8895E9
:1043F000869DC7C68AC6ECDEEBD68BC64FBE4BA4E5
:104400006AB42DED67D307ABF4D511E509D4426941
:10441000869AC5AAA3814359058A659AE3894FB450
:10442000A892C8B22261E3488479669A46A245AA56
:10443000E8A28471888AC992CBCB8AD3CBD3CBCB69
:10444000889AEA92EFC42ABCEAC3CDCC8ECD2FCE97
:10445000B0D6CFB58FA56EA512AE4B85C66C0975CB
:10446000E86C0A7D4A7DE8742675E46C4785057D15
:10447000259548BEE6B5E6B586A5C6AD85A5C8AD09
:10448000647CC3634374A595849528AE099EE77444
:104490002975E8740A8DDEF6BCF6DBEEDBEE35BE80
:1044A00053C6F2AD0FA651BE93BECD9572B62A8DFE
:1044B000278D06A606A6E7A5F1D673CE96D697DE7B
:1044C00055D695D615CE18CE38E639EE3BE65ADEEF
:1044D0004EA5AA9D4785668DAA9D31BEB9E6F9D540
:1044E00036DE0CBE0AAE4CAD90D56ED570CD71B532
:1044F00052AD0F95309532BD51AD2B95B0B556C527
:1045000097E519EE3BE611D64FC6CFCEEBC6E89540
:104510004785A99DEBAD8CA58CA56BC629BEECCEBD
:1045200028AE4CBEABA50DB68DBE2AB6CCCE4CDFA8
:104530002DD7EDCEAED66DC6EDDEEDDEF0DDF0EDC5
:1045400066AB87ABEED518EFB5E669B445ABA8D33B
:104550004CDC09D447BB6FEDACDCCEE409AB71DDBC
:1045600072E5C8DB4492487A6771059A459A87AA32
:10457000E3604892ECD30BDCE7B2AAC38BBB804864
:1045800046A2E8D289D32BBC93DD52DD2B9B478A10
:10459000F1D492C514C670B66985CD95D0B5B4BDB9
:1045A00091C5F0BDAA9DE88DE46CA46C2685006CD5
:1045B000859DC5A5C4A5859D858D64858595048546
:1045C0006374868D08A6E6A508AEA89D07852A8D8A
:1045D000C96C267D679DDDF6FDFEBBE69CEEDCE644
:1045E000BBEEB8E6B8DE35C6C9846A7DA985057517
:1045F000E6744895C8A5869D679D2DB6AC9D72C68C
:1046000039EFAEAD4DA52FAD17DEF9D556BDB5B519
:10461000EA940785C87426852A950EAD2C95D2BDDF
:104620008FBD2EA58EAD96D636DE19EE38EE3AEE5B
:10463000B6DDF8D5B4C557D591BDCAAD70CE70C53D
:1046400091D537D652A5CB8CE9A509AEACB551CEE4
:1046500097CE78D6B4C5D7DD74BDB1CD10C68CBEAB
:104660002EC64FADF7CD30B5ABB5CECECFD6EEDE44
:104670008BC68CC6CFD671EFCEDECED5AEE549BCAB
:1046800009A40DC64A95477C2B9DC9942DBDB2D572
:104690002CA42FD54CDCEDE44FE54DD46CDC4CD490
:1046A00097F62ACC70ED8471456128A2A258E27871
:1046B00064792ACB4ACBC9DB6EE4E679E258A37968
:1046C000C491C9CAE9E2C8D22EE4677AF5D5AD93A0
:1046D000ABCBCBD391DD899CA89DD1AD2A8D898DA3
:1046E000268D678545854BAE52DF6FEFA8D689C60C
:1046F00026B646AEA49584854585458D649506AE5F
:10470000A69D08AE08AEE7A5C79D2DAEAC9D0D9544
:104710008D9DE87CE67CDBEE1BEFB8D656D655D6F1
:10472000B8EEF5CDF2C555CE73D590BD877DE57455
:1047300065740895879DC69D879DA695C895289DFB
:1047400009A54EADADAD0EBE13C690AD2F9D4B8DE0
:1047500046644C9D0CA54DAD2EADEB942B9532C609
:1047600033CE75D678E6B9F639DE19EE79EE19DE74
:10477000D7D533BDD1C476DDF0A40DA50AB6C9BD29
:104780000CCD71BDED9436D6EEB5F0BD1AEEFAED56
:104790001BEE77E595E5D0C50EA5B1B5B1A5867C34
:1047A0002DADF2C4FBEDD2C40DB54FC66FD6B1D658
:1047B000ADCE0DDFABDE6CDE31E670EDC9BBCCAB50
:1047C00010BDC67B277C066CA463E5836CC5E471D1
:1047D000499BA68AC792E571E671E5916DE4CFDC4D
:1047E00011D5AFCC49AB45826459A25028B285B2ED
:1047F0008BD366B248C3EDD3C4796492A5A2269A3E
:10480000E491A29108CBC8C227A26792C6A2ABA32B
:1048100054CDB1CCADB36569E492868CA895089E61
:10482000A8A5ADBE31D7EFD6CBD6EACE68C626B6A0
:1048300006AE26A6E595C69DA79D8AB64AB68CC645
:10484000ACC669B6A9BEA49DE89D6CAE29856A95E3
:10485000E9840585648D15E78FCE8FBE14DFF4D60D
:1048600072D657DE35CECB958B9D088D8785068514
:10487000C494E594059E069EE79DE99550A60DA675
:104880000BB64A9D90CE09B648BE0CB62785478D1B
:10489000C895898411ADD6CDD5CDD1B5F1B5F4C5C6
:1048A000F5C514CE35D615CE16D6D8E55AF6D7E5C9
:1048B000B6DD55CD32B5B0ADC874F3C5B2CE10C6B5
:1048C000D5DDF9DDD8DDF4D58FBDB3C598DD79DD53
:1048D000DBE598E553DECCBDF3CDB5C5CF9CEE9CB2
:1048E00053C558ED79ED96E437D517D615DECEB51C
:1048F0008FD6AFE68DE646ABCDCC2AC52BA4ADC492
:104900002AD427A34673457B89AC6DCD8CCCCAC312
:10491000ABCC8DE469BBCCC390C48ECC0CC40582F7
:104920000BBC54EE0CC4C9D3469225594391E3A95C
:10493000C7D2CCDBE1686379E591838186AA859A49
:1049400023A264BAE5A18481E489479A07B306B338
:10495000C7AA4BB3CE9B33C5E792AABB6ABCE8ACEF
:104960008ABE0ED7ACCE4AC68AC628B688BEE5A592
:1049700027A6C595C69528A6089E8585C68D8485DB
:10498000E69D06A6E7AD6BB62DA68B8D2CA630AEA8
:1049900092BE658D237DEDCE6ABE49AE2CB64EB675
:1049A00051C6D5CE2EA6C99D888D467D657D65856F
:1049B000A6A5A8ADA59D878DC795A89DC89D079E56
:1049C000C69DC58C447C31BEABA5077D057D668D3B
:1049D000ABAD2774485B4A7C0F9DF2ACEE9C38DE91
:1049E00074CD78E5D7E559DED9E519E6F7DDD7D5F9
:1049F00075D577DD55DDF3C58C95287CC8A52FC608
:104A0000D7DD9AE5B9F590D52DDEB7E515E579E561
:104A1000DAED76E5D0C5D1BDD9DDD8DD93C571BD60
:104A200071B5B8E59AE518ED53CD92B5D4CDF5D56D
:104A3000D1CDAED54DDD2FEDA592B3EE73DE29B409
:104A40008269C4714AC4CDD5CEE58CCD66938ABC4B
:104A5000E9B4CEE4E6A26BD4CFD4F0D428B38BD49F
:104A60004CDDEEDDB3E54EF5E7BAC77907AA8499C8
:104A7000A6C2A379C7A289DBEBE349BB459A85AA05
:104A8000A6B245A2659207A367C36ADC07AB06BB63
:104A9000E6AA626949CBECCB74E5B0BC67A3CBABAB
:104AA000CABC2ACE89C6A8BE48B627B6C5A5C59534
:104AB000A68DA68DA58DA68D4685277D677D467D15
:104AC0006685E59D26A6E59D8CB6CFBECFBE2CAEF5
:104AD0004EAECB9D6EAE69B649B6E695E57C0585D2
:104AE0008785A78D857D258DA595A68D8885836471
:104AF000A484C695C69D8695C8958995888DE79DA1
:104B0000059D86ADE8B527AEE6AD647C0264C57C44
:104B1000046C6774434B2474A78CCE9C70A517D685
:104B200079EE9AE6D7D51AEE39E639D672C5D8E5C8
:104B300035CD78D530B42B9CE98C2DBECEC515DE95
:104B400059EEBAEDD4CCD5D516D618DE1BEEDCF571
:104B500038DDD8EDD9ED39E693BDD7DD18D657E667
:104B6000B5D538E657DD58DDF1B4CD9C13CECCA4D5
:104B70002ECDB1E54EE589AB72CD90D54CDD82925C
:104B800047A3A7A34AB471DE8CC52AB5B4F64CBDC1
:104B9000C8A38FBC50D58FD5F0D42CCC48B30DED25
:104BA0004DE56CD574E651E530DDE6812679E268A5
:104BB000E168479A628949D3EAE34ACC8CD409ABCD
:104BC0004279E9AA838146BB47BB0AD48DE4A69A01
:104BD0006279A7AA26A229CBCADB6FD453CDCEA374
:104BE000468A06A3E5A3A8BD48AEE79DC7A5A68D46
:104BF000A7858785667D257D6585667D4685247DBF
:104C0000A685A595E59DC59DE5A5A8BEA59DA795ED
:104C10004CAE2EB6688D69B62796C695E584268576
:104C20008664A57427AE628449B6258DA89DEBAD38
:104C3000277D6885C895C495E695C79DE69DC59571
:104C4000249D8594E89C237407C60DCE6574E35BB0
:104C5000C684C8A54DC64BCE2BADAF94B0BD56E6AD
:104C60001AE617DE14D6F6DD96DD52C536D618DE06
:104C700052BD56D577DD14CD52D50ECEF4DDDAE532
:104C8000B9DDD9E575D515DED6CD38D6B7CDDAE59F
:104C90009BE539E537DD31B5F5CDEFBD0CAEC994F7
:104CA000088D6A9DA99C6FB5D0BDF2C510A589A3DA
:104CB000E7AA2ED50ABD11DEEBC4A9C408C486AB91
:104CC0006ABCEAC48EE50CC56CD54FED0FED267AB3
:104CD00034F6F9E610A490ACE5696482A9BB0CC473
:104CE00050DD72E56DB48CA32AC4C4714549269A7F
:104CF00087BA2AD30BDCE6B2EAD327ABC79A459A28
:104D00002AC488C38CDB2FDC29B3AAC30582E581C2
:104D100009C38AD36AC3EBCB48B3CBCB62794AA32E
:104D2000B2DD288B2793C79B49B5C7A5C695C88D0B
:104D3000898DA895A88D8685E69DE69D869DEDC604
:104D4000A68D868DA69507A6A595C59DC69D258D84
:104D50008A9D6A950475467D056D8785C88D487561
:104D60004A85EAA529BE2DCE8FC5CFC5CEBCCCA421
:104D70004C850C6D86648795C89DC69DE69D84957F
:104D800047BEC9AD647C8AAD8BCECAC5A69C48A57A
:104D90004AC6F0E6B6EEF5DDD7DD33E6F6D5D4CD7E
:104DA000D2CD16DEB1C5D0ADCFB54DA5D4CD54AD65
:104DB000B4C597E576C535CD12CE0BB6CCAD19EEA0
:104DC0001AE637D679DE33D6B7D5B6CD12BDF5DDC6
:104DD00074CD73C5B2C5AFAD6CAD4AB689BE29B648
:104DE00027AE08AE27AEA6AD88ADE8AD69B58CD4C8
:104DF0006BCCC8AC4FCEADBCC371A582CA9B6DC491
:104E00008DD472E5F2ED0FE50FE56CDC469A67C3D1
:104E100029D48ED519F755CE0DCE27A5859B27AB66
:104E200009B44ABCECC435E6CEE4E79AAA82E68926
:104E3000E7BAC7C269D30CDCE8A2A671E258C491F4
:104E4000A7AAABD36BC3D0CC6EC4A15866A24181D4
:104E5000C7BA8BCB2DCCEFCC29A3647948C369D3D7
:104E6000C9D36CCC33CD877AE69A88B4A8A5E89DDF
:104E7000079EE69DA695A69D649D6495C59D458566
:104E8000457DC88DE89D28AEC595C59DC59DC69D2F
:104E90000DA68FBE8464A88D656D2675C874AF8D10
:104EA00031A6ECA50EB611C66FC56FBD14DE53DD7D
:104EB000D2BD12C635D68984067DA795449DA48CA3
:104EC000E26B279D2ABEECBDC694679DAAB5A8B526
:104ED00029BEECBDB2CDD5E5B4E5D4DDF3BD4B8440
:104EE0008AB56FCDD6E5B4CD12C56FBDB2C573B569
:104EF000B4CC54CD72CD33D62ED628D62ABE74DE8D
:104F000071BD73BD38DE36DE73C56DAD2DBEECBD33
:104F10000DBE2CB6A79D889DC89D08AE68B648AE4C
:104F200049B6ACC62CBE8BBEE8AD4ACD0EED6CC406
:104F3000EABCEEC54EC529C447ABAAABF1CC478A43
:104F4000AABBA9B38BB348B329ABE7AAC5AAE9E3C7
:104F5000A9E388D32AB4B4D5B5D687AC25934EE55A
:104F60006FDD8EDD679B54D691E56BCC2582E358CF
:104F700027AAC8C2C8B22AA38148037AE58204726C
:104F8000E59129B36EBC0EB4669A28C307C3C7C2A5
:104F900005A28BBB2DC4C8AA2269A48969CB8ACB80
:104FA000CACB86A24AB38FBCB0CC09AB0CBC258C53
:104FB00025AEE59DE69506A627BEE7AD658D858500
:104FC000A98D4BAEA795C69DE59D25A646AE6495D9
:104FD000A6A565A54685267DE78DE88D4DB62EB63E
:104FE000AA85CB95697D6A8D0A9E6B95B1B5B2B5E0
:104FF00073A50F7DCC8430B5CD942C8D0585C58CE3
:10500000868C679CC9B48DC5C78C6684A584E58CE5
:1050100029A533D6B8DD39F61AEEF5D595CD55C5A7
:105020008CAC30C54EBDD4CD8FC5D0B42FB56B84FC
:105030004C8C4EA5B5E6D0D609AE09B66CADD5CD33
:1050400017DE37CDB9DD6CA46FB52AB68BC68AC61C
:105050006BC66BC628BE48AE6ABE88BE67CE28AE99
:105060004DC66ABECBBEACCE23834DD4EAB389B461
:105070008AC58BCE2BD6258B0CB4ACBB2DCCD4FDE6
:1050800051E572F511E5ADD4A0588371ADDC09D4BA
:1050900049D468BBE491CBCB34C5EDBCA8BB8FDD54
:1050A000B0D591E508AB31DE74EEADD42CBC035124
:1050B000E7A1269A82504040216145920272204920
:1050C0008492A79A446947A2638908C328D34BEC0A
:1050D0004CD46AB3E68186AA89CB28BB65AA889A94
:1050E0000A93EAD369DBA8CBA9CB89B34573A7A5FB
:1050F00003A625AE66AE25AE06AE25A6247545757B
:10510000C77C04752685868DA48D6485448DC6A5CF
:1051100086A586B5888D48B66CBE0DAE2EB653D624
:10512000D1B5CAA5297D4C7DEC5C0C6D30857185AF
:10513000949D518553B557DEB3CC50B54B74436342
:10514000E79C437C69A5E9AC0DC6268D8AC64895C7
:105150002DB538E638E655C575CD78D5B9DDD8E535
:10516000D9DD96D591CD35D68AA50BB60664277CB8
:105170008A9D8AC627BE88BE89C6D2D693BDD6D59B
:10518000D4CDD0B5CEAD2B956A9DC8A549B649BE44
:105190006AB648B6E7A547AE27BE27AE07AE28AE2B
:1051A000089E2CAE247C4BD56CDC4A9C0FB6EBB52C
:1051B000CAC6ABC64AB5F1D5F4E530DDCFD40CBCD8
:1051C00092ED72E511DD28AB0CE42BD48CD48792E0
:1051D0004ECC46A228D30ACBACAB75CD2793ECC4FA
:1051E000ECCC2CBCD0E44FDD32DEAED4C7A24361A0
:1051F0004361A160C9C2A6CAC6BAA6A28592869A10
:10520000458A036168A227CBEAD3AEDCE7BA28C39C
:105210002DC46369C8BA69CB49CBCBD36592457AB3
:10522000E592C38128C369C389BBE38207B6E4A5BD
:10523000E5A527B607A6868D478DA6956EB64B9534
:10524000D5D6EE9DEC9D6885267D467D8795EDC67D
:10525000A6A5C5B5468D6CC64CB6EFCD73DE15E67A
:10526000B4DD10AEE964EA6C0C85CCADD0BD16D6C9
:10527000CF84E9438E74AB74D0942D942CB4C78B37
:10528000A67C4584247CC9AD067C89A5EEB5D1C534
:1052900090ADCD8C72BD94DD18EE76CD93BDB0B5DA
:1052A0006884AA94299D4895E67CEAAD677CA89518
:1052B00089BE69CE6BBE48BE29C6EEB52DB6EEBD21
:1052C0004DC62AB60EC62EA56AA549BEC9C689D640
:1052D0006ABE08B628AE06AE47BE68C628AE6EBE29
:1052E0004EB667948CCC8BBB89A3257C48A509AEB0
:1052F00042640474CDBC11E5CCB3678AC89249936B
:10530000A8828BAB28B3CFECEBDB2CDC6371636939
:10531000E589A9DBE8D22AB3235996CD71BDCCC467
:10532000A369C37AC7AB69AB8A9BECB38ADCA58A55
:10533000E86984812AC38BD349CB68CBC5A2C581D8
:10534000A15068A249DB68D389D36BDC8EDC45921F
:1053500044824482439A69CB6BCB6892C68AC492DA
:10536000C49AC5A2A59A668AA141279D25AE25AEFD
:1053700004AE26AEE69D858DA68D47856B8DB0B6B5
:10538000B2B68E9DD7DED6C66B8D4B956985487DAE
:10539000878DA69DA7AD4BBE0FCED4DD95E615DE5D
:1053A000D5DD70B56D9D2B9DEFC531DE8EBD2EC553
:1053B0000EC62C950A7C4D954B7CCD84287CE773DA
:1053C000C25B068DA473C8B5ABA5AEC5D0B535D646
:1053D00071BDD3CD31B593C5F4DDB5DDCE9C8774F9
:1053E00025640575E574A794877C8A95458527AE65
:1053F0004ABE6BC66ABE27AE0BB62BB6CACE67BE18
:105400008ABE69B6E8ADEAB56CBE28BE27BE05BE49
:1054100047B646B627B608A64BBE92CE6EBEC89D0E
:105420002A95D1E5B2DD8B9C0774E994457C2695DD
:105430008BB570D5446A097B2E9C75BD79D637CE65
:1054400058DEF1BCCC9B10DD8AC3469A6BD369CB86
:10545000A7A2869A0ED4078287A24DA354C56DCC0D
:1054600088AB26BC68BC48A3CAA3F5E50DEDCACC41
:105470006982247188AACDCB2DCCCFD42261C58975
:10548000CAB207AAC7C285BA48C38DD48382869C94
:10549000458C879BAECC2AB3637926A2416964927E
:1054A000A392049B425960102011A7A525AE45B6D2
:1054B00025AE06A606A6A795C88DA88DCB9D2EB6AF
:1054C0008DADF1BDD9DE94C6CEADF0B52C7D8C8D01
:1054D000CBA5A9ADA79D4DBECECDF2D5F3DD35DD73
:1054E000F0ACE96CEC8C6C9DE7848FB531E6ACAD2B
:1054F000B0DD13E54FBC0A850A74099C087D656C14
:10550000A794A6942473458CAFBD50D58DBDAA9C9D
:105510000BB52A9DF0BD14DE95DDD6DD52B56FBD0D
:1055200091A58674EA94EDAC6EBD0DAE28A64CB67E
:105530002DAE8AB629AE8ABE89C668BE68BE8BC645
:105540006AB66ABE27B649C6A9C6CACE04AEE6A5E3
:1055500026AE4ABEB2DE71CE36E738E717DFE99CE9
:105560006A944CAD6DA5277451BE17D705538A9C1C
:10557000EAA30983CFA4F9EE8F9CE86206422008D3
:105580008639E85AF8DE7BF7C98AAFDC0BD46ECCDB
:105590006469C14824594792E7C2267A51AC658AAA
:1055A000A5ABA5BB4ABCC48AAEE5D1CDEED432F6DC
:1055B0000A93045107A2C7AACCC38140C78989D3E3
:1055C0004ADBABD2A892248AA6B26692A159668B16
:1055D0008683CCAC0783E460E9BA68CB68D307B3B1
:1055E0002382E13062288561845248A524B645B6FD
:1055F00047B6C69DC795A8958A8D0DA611B696DEAD
:1056000095DE14CE55CE15CE95D515C618CEF6CD51
:10561000AEADE894078DD5E5D4DD57DDD4E414E5CF
:1056200073D54EA58A74E96C8EADEEAC4B8570AD2A
:10563000D2D591CCCB8CF1B56B8D6785C78D468D5E
:10564000A394448C22634AB5AEBDA98CE8A42985F5
:10565000698D878DAAA5EDBD35CEAE94EA8C4EA599
:10566000B2AD8C8DEFA58A9D0DBE4BB60BAE4CB680
:105670006BB608AE29AEAACE87C687C646B626AE9A
:1056800028B609B64DBE37EF2DBE8DC670CE90CE72
:10569000D4E676E6B0BC99E655DED5E670D533F6AD
:1056A00089B3E56249640B8546636B944CACAFC427
:1056B000C98213D611B54A6B2963EA622008C32058
:1056C000E739653AEA6BB094FAF64E9C70CC90D408
:1056D00087BA07BB068A08C328BBE5599094267A87
:1056E000C68A8EB40BB4EDDCAEE50ECEF2DD30DD55
:1056F00087A321498AB2E9A2E78A669266A248CBCB
:10570000EAC3C692C572E469E8A2449207AB469226
:105710006482247A235987920BD404ABA27909A31B
:10572000E130A2102219C010A25265A425B6E6A548
:1057300068B608A6099E0CA692C693CE96DEFCF625
:10574000D7DD5AE67AE65AF6D7E5D8E552AD78DDE8
:10575000D6DDF5CD71BD17ED76E578F517F555E594
:1057600053E510C5EFCC12CD8FA40C85A88DC9953B
:105770008795689D858DCB9DE76C07652675E574DB
:10578000458DE5A486A468A5EABD4464E57C467D14
:10579000C8952EBE75D6EAA5ECB596D6F0BDD1ADAE
:1057A0008C9D6A95866CA7956BB66BB668B628B665
:1057B0008BCEAAC68AC66AC649B667C669C608B687
:1057C000ACCE8BC68CCEF4DE74D6D4D68FCEAFCE14
:1057D000CFC5B0C594DD54CEF0D5B1E514F66BB3AA
:1057E000ABABEB9B4363A56BCEAC2A9BE89A677A85
:1057F000B0A4D4BD496B4973C95AC2186108821854
:105800002429E742AE7C0964F09D39DF94D58BC32F
:1058100066B2A7BAC160C8AA66B2255A073A099308
:10582000E479A669E589468AC37A679C8BACE9C3AB
:10583000A9D40B9C2A7B855A8351889B449A45AAFC
:1058400008ABC251A55A28AB827149B3CAABA14873
:105850004359238244922392E271C279A792E118BC
:10586000E218C108810845196652248D23A6C59DFA
:10587000A795688DC995AA95288D51BE74CE55D629
:105880009AEE19EE9DFE14CE30AD17DE76C596CD9C
:1058900031B592BDCF9457DD57E535DD95ED94E5F3
:1058A00034EDD4ED8ED5B2E56CA42B950BAEE69D10
:1058B000467D477D276DC75C0675267DA45CE66442
:1058C0002585869DABBE0695637C057D2695649DEA
:1058D000E9B5B2CEEDADE69DE79D0DB611C64C9D86
:1058E0002AA6869549AE8DBE0AA68BB68BBE8ABE09
:1058F000CACE89C68ACEAAC66CB66BBE8ECE73E7F8
:105900006ECEB2CE39EFF4D617E772CE0DB62BB607
:1059100028BE6DCE74DEF2DD0FDD2492CBCB2FBC22
:105920006ED4C7B209AC30C5CFCC4AA3CDB3A872F0
:10593000D9E60A6B4A73885A895A2000C7318731E1
:10594000E520253AA63A043AE953AE841AEFD0B4DA
:10595000ECCB4792E368C26806928449AB8B045A49
:10596000EDAB2CCC48E3EACB279349B4CEC5ADE4EC
:1059700009DC889BA8620863E259C66ACFCC668AB4
:105980004149245A62498261C9B348AB088B2662F7
:10599000A371048AA8AA89AA689B89AB81300319DC
:1059A000E5318229C338A110C874E7A5679547AED1
:1059B00029A6089EA88DEA9D6B8D0975477D4EB678
:1059C000D2B5F7D5B4CD15BE13BE93B5F8DD75CD00
:1059D00071BD90B5F3CD93D571D595E552D552D51E
:1059E00052DDB4E56EB531BDAEA4CFBC69A5E8BD4E
:1059F0008895C56C8454A554A55C4775A664E3538B
:105A0000879D09AEE67CE27366952495449C289DAB
:105A1000E8AD2AAEC79D05AEE5A5C89DE7A529AEB0
:105A200008A608A6E7A50AAE49AE29AE6AB649B6E9
:105A3000E7AD07AE48BE6AC64CC60AAE4CB62EBE2F
:105A4000D4D61ADF2EBE4CBED2D60BAE28A64AB68E
:105A500090CE30CE0DD570EDAFDCC89AD0C4679231
:105A600086AA6DE42FDD51DD65B28FDC4EB4B0AC9B
:105A7000D09C096B096B054265316008874A274A4B
:105A800064296F952D7DC64ACD740B6C095BD9E6F0
:105A900011DD23694489E689C2508469C97B6C940D
:105AA0000FB40DD4E9D38ED445926DD42CBDCCCC9B
:105AB000ADF409BCC461E551E148E7928040C4718E
:105AC000C59A0262235A0382658A8AAB426162598F
:105AD000E381038A4492E592A239E662A32941193F
